:100000000C94A91B0C94D31B0C94D31B0C94D31BE2
:100010000C94D31B0C94D31B0C94D31B0C94D31BA8
:100020000C94D31B0C94D31B0C94D31B0C94D31B98
:100030000C94D31B0C9439530C94D31B0C94D31BEA
:100040000C94D31B0C94C09A0C9427C20C94D31B11
:100050000C94253D0C94D31B0C94D31B0C94D31BF4
:100060000C94D31B0C94D31B0C94D31B0C94D31B58
:100070000C94D31B0C94D31B0C94D31B0C94D31B48
:100080000C94D31B0C94D31B0C94D31B4A784D783F
:100090004078447864786478517855785B785F78F4
:1000A00096C19BC1A0C1AAC1D8C1D8C1B4C1BCC1AD
:1000B000C4C1CEC182D15BD092D0BED192D092D0F9
:1000C00092D092D092D092D092D092D092D092D020
:1000D00092D092D092D092D092D092D092D092D010
:1000E00092D092D092D092D092D092D092D092D000
:1000F000B8D192D092D092D092D092D092D092D0C9
:1001000092D091D192D092D092D092D092D092D0DF
:1001100092D092D092D092D0D5D18FD0084AD73BEE
:100120003BCE016E84BCBFFDC12F3D6C74319ABDC6
:1001300056833DDA3D00C77F11BED9E4BB4C3E91EA
:100140006BAAAABE000000803F05A84CCDB2D44ED9
:10015000B93836A9020C50B9918688083CA6AAAADB
:100160002ABE000000803F004E414E494E4954597E
:10017000494E46CDCCCC3D0AD7233C17B7D1387772
:10018000CC2B329595E6241FB14F0A000020410088
:1001900000C84200401C4620BCBE4CCA1B0E5AAED2
:1001A000C59D7400407A10F35A00A0724E180900E1
:1001B00010A5D4E80000E87648170000E40B5402CC
:1001C0000000CA9A3B000000E1F505000080969807
:1001D00000000040420F000000A086010000001057
:1001E0002700000000E80300000000640000000099
:1001F000000A00000000000100000000002C76D87A
:1002000088DC674F0823DFC1DFAE59E1B1B796E55F
:10021000E3E453C63AE651997696E8E6C28426EBC3
:10022000898C9B62ED407C6FFCEFBC9C9F40F2BAD6
:10023000A56FA5F490055A2AF75C936B6CF9676D6E
:10024000C11BFCE0E40D47FEF520E6B500D0ED90C3
:100250002E0300943577050080841E080000204E90
:100260000A000000C80C333333330F986E12831129
:1002700041EF8D2114893BE65516CFFEE6DB18D100
:10028000844B381BF77C1D901DA4BBE424203284D2
:10029000725E228100C9F124ECA1E53D27434F4D58
:1002A0004D554E49434154494F4E004452595255C1
:1002B0004E004552524F525300494E464F0045435F
:1002C000484F0020746F6F206C6F6E6720657874E4
:1002D000727573696F6E2070726576656E74656491
:1002E0000A0020636F6C6420657874727573696F9F
:1002F0006E2070726576656E7465640A0047322FF1
:1003000047332062616420706172616D657465724B
:10031000730A00536C6565702E2E2E00456E646561
:10032000722D332050726F2072656164792E0052F5
:100330006573756D696E67207072696E7400436CC9
:1003400069636B20746F20726573756D652E2E2E38
:10035000004E6F206D6F76652E00456E64206669D5
:100360006C65206C6973740A00426567696E20666B
:10037000696C65206C6973740A0054462070726958
:100380006E74696E67206279746520004E6F742008
:100390005446207072696E74696E670A0046696C13
:1003A000652064656C657465643A0044656C6574C9
:1003B000696F6E206661696C65642C2046696C65A6
:1003C0003A20006F70656E206661696C65642C2050
:1003D00046696C653A20002569730025696D202502
:1003E0006973002569682025696D202569730025DA
:1003F0006964202569682025696D202569730025B9
:10040000697920256964202569682025696D202582
:100410006973005072696E742074696D653A2000CA
:1004200050726F7465637465642050696E0A00458C
:100430007874727564657220257300456E64657208
:100440002D332050726F2072656164792E00BE02D8
:10045000B902B202AB029D026F6666004445425586
:10046000473A004B494C4C45442E20004D31313326
:100470002053006F6B00456E6465722D33205072FF
:100480006F204F66662E004361703A454D455247D6
:10049000454E43595F5041525345523A300A00434A
:1004A00061703A434153455F4C494748545F42525B
:1004B000494748544E4553533A300A004361703A15
:1004C000544F47474C455F4C49474854533A300ACC
:1004D000004361703A534F4654574152455F504F65
:1004E0005745523A300A004361703A4C4556454CE4
:1004F000494E475F444154413A300A004361703AE3
:100500005A5F50524F42453A300A004361703A41B7
:1005100055544F4C4556454C3A300A004361703AA9
:100520005052494E545F4A4F423A310A004361707B
:100530003A50524F47524553533A300A0043617084
:100540003A4155544F5245504F52545F54454D50C7
:100550003A310A004361703A454550524F4D3A31A5
:100560000A004649524D574152455F4E414D453A6A
:100570004D61726C696E20437265616C697479209B
:10058000334420534F555243455F434F44455F55D5
:10059000524C3A68747470733A2F2F676974687597
:1005A000622E636F6D2F4D61726C696E4669726D5C
:1005B000776172652F4D61726C696E2050524F5495
:1005C0004F434F4C5F56455253494F4E3A312E30B0
:1005D000204D414348494E455F545950453A456E78
:1005E0006465722D332050726F2045585452554423
:1005F00045525F434F554E543A3120555549443A80
:1006000063656465326132662D343161322D343771
:1006100034382D396231322D6335356336326633E5
:10062000363766660A002F2F20004D3134352053AF
:100630003C696E6465783E206F7574206F66207229
:10064000616E67652028302D31290A005365747466
:10065000696E672054726176656C20416363656CD6
:1006600065726174696F6E3A200053657474696EC7
:1006700067205265747261637420416363656C65C1
:10068000726174696F6E3A200053657474696E67A5
:10069000205072696E7420416363656C6572617489
:1006A000696F6E3A200053657474696E67205072EA
:1006B000696E7420616E642054726176656C2041AD
:1006C0006363656C65726174696F6E3A2000205ACD
:1006D00000205900580020204D61783A2000205A0F
:1006E00000205900580020204D696E3A20004F6EBE
:1006F00020004F666600536F667420656E647374E5
:100700006F70733A200000010F150E12FF16170EBE
:1007100013FF03021A14FFFFFF0C04FFFFFF010089
:100720000EFFFF0C190DFF18FFFFFFFFFFFF2064F6
:100730003A0020693A0020703A0043290A006162B9
:100740006C656420286D696E2074656D70200043AF
:100750006F6C64206578747275646573206172656E
:1007600020004F666673657473206170706C6965F4
:1007700064004572723A20546F6F206661722100E6
:10078000546F6F206661722066726F6D20726566AD
:100790006572656E636520706F696E740A004E6FD6
:1007A0002063617365206C696768740A0041637433
:1007B0006976652045787472756465723A200055D3
:1007C0006E6B6E6F776E20636F6D6D616E643A2035
:1007D00022004B494C4C45442E200053544F50505E
:1007E00045442E20005072696E7465722073746FD8
:1007F000707065642064756520746F206572726F17
:1008000072732E2046697820746865206572726F55
:100810007220616E6420757365204D3939392074FA
:100820006F20726573746172742E202854656D7028
:100830006572617475726520697320726573657481
:100840002E2053657420697420616674657220726D
:10085000657374617274696E67290A004E6F204C6B
:10086000696E65204E756D626572207769746820C7
:10087000636865636B73756D2C204C617374204CD9
:10088000696E653A20004E6F20436865636B73752F
:100890006D2077697468206C696E65206E756D6275
:1008A00065722C204C617374204C696E653A20008F
:1008B000636865636B73756D206D69736D617463D7
:1008C000682C204C617374204C696E653A20004C92
:1008D000696E65204E756D626572206973206E6F5A
:1008E00074204C617374204C696E65204E756D6286
:1008F00065722B312C204C617374204C696E653A03
:1009000020004D313130004D3331004D3834205806
:100910002059205A204500544620726561642065A4
:1009200072726F720A00446F6E65207072696E7425
:10093000696E672066696C650A0020496E76616C95
:100940006964206578747275646572200000000027
:1009500000000000000000000000006B4300006B7E
:100960004300007A434D36303020486F74656E6422
:1009700020746F6F20636F6C6420746F20636861F4
:100980006E67652066696C616D656E740A0020741F
:100990006F6F206C6F6E6720657874727573696F06
:1009A0006E2070726576656E7465640A0020636FF0
:1009B0006C6420657874727573696F6E20707265EF
:1009C00076656E7465640A0024F4D43050C38E20BA
:1009D000C2A24017828B7011127A910D816CD90AD4
:1009E000A861E108C7586607615143061E4B5D05C3
:1009F000C145A7041A411104093D98037139310317
:100A00004036DB0265339102D4305402802E1D0241
:100A1000632CEE01752AC501B028A00110278101C1
:100A20008F2564012B244B01E0223401AC211F01EE
:100A30008D200D01801FFC00841EED00971DDF003E
:100A4000B81CD200E61BC600201BBC00641AB20012
:100A5000B219A8000A19A0006A189900D1179100CC
:100A600040178B00B516840031167E00B31579004F
:100A70003A157300C7146F0058146A00EE1366002D
:100A80008813630025135E00C7125B006C125700C9
:100A900015125400C111510070114F0021114B006B
:100AA000D61049008D104700461044000210420045
:100AB000C00F4000800F3E00420F3C00060F3B007D
:100AC000CB0E3800930E37005C0E3500270E340035
:100AD000F30D3200C10D3100900D3000600D2E007D
:100AE000320D2D00050D2C00D90C2B00AE0C290069
:100AF000850C29005C0C2700350C27000E0C260005
:100B0000E80B2400C40B2400A00B23007D0B230062
:100B10005A0B2100390B2100180B2000F80A1F0086
:100B2000D90A1E00BB0A1E009D0A1D00800A1D0076
:100B3000630A1C00470A1B002C0A1B00110A1A003A
:100B4000F7091A00DD091900C4091900AB091900D9
:100B5000920917007B091800630917004C09160059
:100B600036091600200916000A091500F5081500B7
:100B7000E0081400CC081400B8081400A4081400FD
:100B8000900813007D0812006B081300580812002B
:100B90004608120034081100230811001208110041
:100BA00001081100F0071000E0071000D007100046
:100BB000C0071000B0070F00A107100091070E003A
:100BC00083070F0074070F0065070E0057070E001C
:100BD00049070E003B070D002E070E0020070D00F1
:100BE00013070D0006070D00F9060C00ED060D00B9
:100BF000E0060C00D4060C00C8060C00BC060C0075
:100C0000B0060C00A4060B0099060C008D060B0024
:100C100082060B0077060B006C060B0061060A00CB
:100C200057060B004C060A0042060A0038060A0066
:100C30002E060A0024060A001A060A0010060900F9
:100C400007060A00FD050900F4050900EB05090087
:100C5000E2050900D9050900D0050900C70509000A
:100C6000BE050900B5050800AD050800A505090089
:100C70009C050800940508008C0508008405080000
:100C80007C050800740508006C0507006505080070
:100C90005D050700560508004E05070047050700DB
:100CA0004005080038050700310507002A05070040
:100CB000230507001C050600160507000F050700A1
:100CC0000805060002050700FB040600F5040700FE
:100CD000EE040600E8040600E2040700DB04060058
:100CE000D5040600CF040600C9040600C3040600AC
:100CF000BD040600B7040600B1040500AC040600FC
:100D0000A6040600A00405009B0406009504050047
:100D1000900406008A04050085040500800406008E
:100D20007A04050075040500700405006B040500D5
:100D300066040500610405005C0405005704050015
:100D4000520405004D040500480405004304050055
:100D50003E0404003A040500350405003004040094
:100D60002C04050027040400230405001E040400CD
:100D70001A04040016040500110404000D04040004
:100D8000090405000404040000040400FC0304003A
:100D9000F8030400F4030400F0030400EC0304006F
:100DA000E8030400E4030400E0030400DC0304009F
:100DB000D8030400D4030400D0030400CC030400CF
:100DC000C8030300C503030024F404D9201BC40C8A
:100DD0005C0E9804C4095F0265077101F405F9000F
:100DE000FB04B30048048700C103690058035500A1
:100DF00003034500BE023A008402310053022A0078
:100E00002902250004022000E4011C00C801190089
:100E1000AF01170098011400840113007101100044
:100E20006101100051010E0043010D0036010B005D
:100E30002B010B0020010B00150109000C0109001A
:100E400003010800FB000800F3000800EB000700A6
:100E5000E4000600DE000600D8000600D20006000E
:100E6000CC000500C7000500C2000500BD0004005D
:100E7000B9000400B5000400B1000400AD00040096
:100E8000A9000400A5000300A20003009F000400C5
:100E90009B000300980003009500020093000300EC
:100EA000900003008D0002008B0003008800020008
:100EB0008600020084000300810002007F0002001F
:100EC0007D0002007B000200790002007700010033
:100ED000760002007400020072000100710002003E
:100EE0006F0002006D0001006C0002006A0001004A
:100EF0006900020067000100660001006500010052
:100F00006400020062000100610001006000010055
:100F10005F0002005D0001005C0001005B00010059
:100F20005A0001005900010058000100570001005B
:100F3000560001005500010054000100530000005C
:100F40005300010052000100510001005000010057
:100F50004F0001004E0000004E0001004D00010056
:100F60004C0001004B0000004B0001004A00010052
:100F7000490001004800000048000100470001004E
:100F80004600000046000100450000004500010049
:100F90004400010043000000430001004200000043
:100FA000420001004100000041000100400001003A
:100FB0003F0000003F0001003E0000003E00010035
:100FC0003D0000003D0001003C0000003C0000002E
:100FD0003C0001003B0000003B0001003A00000023
:100FE0003A0001003900000039000100380000001B
:100FF0003800000038000100370000003700010011
:101000003600000036000000360001003500000008
:1010100035000000350001003400000034000000FD
:1010200034000100330000003300000033000100F1
:1010300032000000320000003200010031000000E8
:1010400031000000310001003000000030000000DD
:10105000300001002F0000002F0000002F000000D2
:101060002F0001002E0000002E0000002E000100C5
:101070002D0000002D0000002D0000002D000100BB
:101080002C0000002C0000002C0000002C000100AF
:101090002B0000002B0000002B0000002B000100A3
:1010A0002A0000002A0000002A0000002A00010097
:1010B000290000002900000029000000290000008C
:1010C000290001002800000028000000280000007E
:1010D0002800000028000100270000002700000071
:1010E0002700000027000000270001002600000064
:1010F0002600000026000000260000002600010057
:10110000250000002500000025000000250000004B
:10111000250000002500010024000000240000003C
:10112000240000002400000024000100230000002F
:101130002300000023000000230000002300000023
:101140002300000023000100220000002200000014
:101150002200000022000000220000002200010006
:1011600021000000210000002100000021000000FB
:1011700021000000210000002100010020000000EB
:1011800020000000200000002000000020000000DF
:101190002000000020000000200001001F000000CF
:1011A0001F0000001F0000001F0000001F000000C3
:1011B0001F0000001F0001001E0000001E000000B4
:1011C0001E0000001E0000004D3834205820592019
:1011D0005A2045006265640A002C20737973746597
:1011E0006D2073746F70706564212048656174654B
:1011F000725F49443A200048656174696E672066F1
:1012000061696C65640048656174696E6720666138
:10121000696C65640048656174696E672066616920
:101220006C65640048656174696E67206661696C0D
:1012300065640000060900FE0000000000010900CE
:1012400008FE000005080806000040F0C8888898DD
:101250007810050808060000C0F88888888888F893
:101260000505050600012030F830200508080600B5
:10127000002070F820202020E00509090600FF204A
:1012800070A8A8B8888870200509090600FFE080CA
:10129000C0B0A8283028280509090600FFF8A8884A
:1012A00088888888A8F8050A0A0600FE2050505051
:1012B0005088A8A8887003030306000340A040FFDD
:1012C000FFFFFFFFFFFFFFFFFFFFFFFFFFFFFFFF2E
:1012D000FFFFFFFFFFFFFFFFFFFFFFFFFFFFFFFF1E
:1012E000FFFFFFFFFFFFFFFFFFFFFFFFFFFFFFFF0E
:1012F000FFFFFFFFFFFFEFFFFFFFFFFFFFFFFFFF0E
:10130000FFFFFFFFFFFFEFEFFFFFFFFFFFFFFFFF0D
:10131000FFFFFFFFFFFFE7DFFFFFFFFFFFFFFFFF15
:10132000FFFFFFFFFFFFE7DFFFFFFFFFFFFFFFFF05
:10133000FFFFFFFFFFFFE3DFFFFFFFFFFFFFFFFFF9
:10134000FFFFFFFFFFFFF3CFFFFFFFFFFFFFFFFFE9
:10135000FFFFFFFFFFE1E1CFFFFFFFFFFFFFFFFF09
:10136000FFFFFFFE78000003DDFFFFFFFFFFFFFF31
:10137000FFFFFEFF807E0001EEFFFFFFFFFFFFFF8C
:10138000FFFFFE7DCFFC0000F77FFFFFFFFFFFFFA9
:10139000FFFFFF8E060000007BBFFFFFFFFFFFFF88
:1013A000FFFFFFC0000000007DDFFFFFFFFFFFFF2A
:1013B000FFFFFFFC01FE00003EE7FFFFFFFFFFFF16
:1013C000FFFFFFFFFFFC00031F73FFFFFFFFFFFF97
:1013D000FFFFFFFFFFF800018F81FFFFFFFFFFFF0F
:1013E000FFFFFFFFFFE0000083F9FFFFFFFFFFFFAC
:1013F000FFFFFFFFFF00FC0000F0FFFFFFFFFFFF0C
:10140000FFFFFFFFE00FFFC00000FFFFFFFFFFFF38
:10141000FFFFFFFE03FFFFC00000FFFFFFFFFFFF16
:10142000FFFFFFFFFFFFF9000000FFFFFFFFFFFFCF
:10143000FFFFFFFFFFFFFC0007C0FFFFFFFFFFFFF5
:10144000FFFFFFFFFFFFFF0007E0FFFFFFFFFFFFC2
:10145000FFFFFFFFFFFFFFE007F1FFFFFFFFFFFFC1
:10146000FFFFFFFFFFFFFFFC07F9FFFFFFFFFFFF8D
:10147000FFFFFFFFFFFFFFFF03F9FFFFFFFFFFFF7E
:10148000FFFFFFFFFFFFFFFF83F9FFFFFFFFFFFFEE
:10149000FFFFFFFFFFFFFFFFC3FFFFFFFFFFFFFF98
:1014A000FFFFFFFFFFFFFFFFE1FFFFFFFFFFFFFF6A
:1014B000FFFFFFFFFFFFFFFFF0BFFFFFFFFFFFFF8B
:1014C000FFFFFFFFFFFFFFFBF83FFFFFFFFFFFFFF7
:1014D000FFFFFFFFFFFFFFF9F83FFFFFFFFFFFFFE9
:1014E000FFFFFFFFFFFFFF7EF0FFFFFFFFFFFFFF9C
:1014F000FFFFFFFFFFFFFF8E03FFFFFFFFFFFFFF69
:10150000FFFFFFFFFFFFFFE01FFFFFFFFFFFFFFFEA
:10151000FFFFFFFFFFFFFFFFFFFFFFFFFFFFFFFFDB
:10152000FFFFFFFFFFFFFFFFFFFFFFFFFFFFFFFFCB
:10153000FFFFFFFFFFFFFFFFFF7FFFFFFFFFFFFF3B
:10154000FFFFFF00007FFFFFF87FFFFFFFFFFFFFB0
:10155000FFFFFF80007FFFFFE07FFFFFFFFFFFFF38
:10156000FFFFFFC3FCFFFFFFF8FFFFFFFFFFFFFFD1
:10157000FFFFFFC3FCFFFFFFF8FFFFFFFFFFFFFFC1
:10158000FFFFFF87FDFFFFFFF1FFFFFFFFFFFFFFF3
:10159000FFFFFF87FFFFFFFFF1FFFFFFFFFFFFFFE1
:1015A000FFFFFF0FE7F30FFC23FC3FFFFFFFFFFFF1
:1015B000FFFFFF0FEF8007F003F01E007FFFFFFF2C
:1015C000FFFFFE1FCF8187C787C70C007FFFFFFF8C
:1015D000FFFFFE001FC7C78FC79F0F0CFFFFFFFF56
:1015E000FFFFFE001F878F1F8F1F0F1FFFFFFFFFD3
:1015F000FFFFFC3F9F8F8F1F8E001E3FFFFFFFFFEF
:10160000FFFFFC7F3F0F1E3F1E3FFE3FFFFFFFFF20
:10161000FFFFF87FFF1F1C3F1C7FFC7FFFFFFFFFCA
:10162000FFFFF8FFFF1E1C7E1C7FFC7FFFFFFFFFFC
:10163000FFFFF0FFCE3E3C7E3C7FB8FFFFFFFFFF89
:10164000FFFFF0FF9E3C387C387E78FFFFFFFFFFF6
:10165000FFFFE1FF3C7C787C783CF1FFFFFFFFFF60
:10166000FFFFE1F8387878101801F1FFFFFFFFFF66
:10167000FFFF000060203C007C07807FFFFFFFFF32
:10168000FFFFFFFFFFFFFE1FFE1FFFFFFFFFFFFF2C
:10169000FFFFFFFFFFFFFFFFFFFFFFFFFFFFFFFF5A
:1016A000FFFFFFFFFFFFFFFFFFFFFFFFFFFFFFFF4A
:1016B000FFFFFFFFFFFFFFFFFFFFFFFFFFFFFF2514
:1016C000753A2530327500253032753A253032753D
:1016D0000025756420253032753A25303275005A60
:1016E0000059005800092000000000000000000020
:1016F00000000000003FFFF0F80180003000000013
:101700000000000000380070480080004800000021
:10171000000000000030FC3043C38CD00800000003
:10172000000000000020FC107124926FB000000047
:10173000000000000020781041249E4008000000B6
:1017400000000000002030104924904048000000B4
:1017500000000000002C00D0FBB3CEE0301FE00002
:1017600000104100002E31D000000000003FF000CA
:1017700000082080002F7BD000000000003FF00018
:1017800000082080002F7BD0007C0000003FF0008C
:1017900000104100002E31D000220000001FE000A8
:1017A00000208200002C00D000220000001FE0007A
:1017B000004104000020301000226C70003FF00057
:1017C0000041040000207810003C3088003FF00009
:1017D000002082000020FC1000202088003FF00044
:1017E000001041000030FC3000202088000FC000B5
:1017F00000000000003800700020208800078000F2
:1018000000FFFFC0003FFFF0007078700003000091
:1018100000FFFFC00000000000000000000000000A
:1018200000000000003FFFF0F801800030000000E1
:1018300000000000003800704800800048000000F0
:10184000000000000033873043C38CD00800000044
:1018500000000000002787907124926FB000000004
:1018600000000000002F87D041249E4008000000A7
:1018700000000000002F87D049249040480000005D
:1018800000000000002F03D0FBB3CEE0301FE000CB
:10189000000820800020301000000000003FF00011
:1018A000000410400020781000000000003FF0000D
:1018B0000004104000207810007C0000003FF00081
:1018C000000820800020301000220000001FE000EF
:1018D00000104100002F03D000220000001FE00094
:1018E00000208200002F87D000226C70003FF000A3
:1018F00000208200002F87D0003C3088003FF0009D
:10190000001041000027879000202088003FF00051
:10191000000820800033873000202088000FC0009E
:1019200000000000003800700020208800078000C0
:1019300000FFFFC0003FFFF0007078700003000060
:1019400000FFFFC00000000057726974696E6720D5
:10195000746F2066696C653A20006F70656E206652
:1019600061696C65642C2046696C653A20006F7073
:10197000656E206661696C65642C2046696C653A09
:10198000200046696C652073656C65637465640A44
:10199000002053697A653A200046696C65206F70B3
:1019A000656E65643A20006F70656E206661696CD3
:1019B00065642C2046696C653A20002066696C6578
:1019C0003A20004E6F7720002220706F7300222093
:1019D000706172656E743A2200535542524F5554ED
:1019E000494E452043414C4C207461726765743AFE
:1019F00022004B494C4C45442E2000747279696E8C
:101A00006720746F2063616C6C207375622D67634F
:101A10006F64652066696C657320776974682074EB
:101A20006F6F206D616E79206C6576656C732E200A
:101A30004D4158206C6576656C2069733A004361AE
:101A40006E6E6F74206F70656E207375626469725C
:101A5000200054462063617264206F6B0A006F702F
:101A6000656E526F6F74206661696C65640A0076FA
:101A70006F6C756D652E696E6974206661696C6541
:101A8000640A004572726F723A00544620696E69AA
:101A900074206661696C0A006175746F25692E6730
:101AA000004D3234004D323320257300F401000024
:101AB000F401000064000000E80300000000FA43A5
:101AC0000000FA430000A0400000C8410000A0420E
:101AD0000000A0420000C8430000BA422044002099
:101AE000490020204D3330312050005049442073AC
:101AF000657474696E67733A0A00204600204200DC
:101B000020480020204D3134352053004D6174654C
:101B10007269616C206865617475702070617261B2
:101B20006D65746572733A0A00205A0020590020CE
:101B3000204D323036205800486F6D65206F666644
:101B40007365743A0A00204500205A00205900208D
:101B5000580020420020540020204D3230352053C0
:101B600000416476616E6365643A20533C6D696E32
:101B70005F66656564726174653E20543C6D696E94
:101B80005F74726176656C5F6665656472617465C9
:101B90003E20423C6D696E5F7365676D656E745F74
:101BA00074696D655F6D733E20583C6D61785F7838
:101BB000795F6A65726B3E205A3C6D61785F7A5F2F
:101BC0006A65726B3E20453C6D61785F655F6A6552
:101BD000726B3E0A0020540020520020204D32300B
:101BE00034205000416363656C65726174696F6E87
:101BF0002028756E6974732F7332293A20503C7017
:101C000072696E745F616363656C3E20523C7265FD
:101C100074726163745F616363656C3E20543C74ED
:101C2000726176656C5F616363656C3E0A00204596
:101C300000205A0020590020204D32303120580019
:101C40004D6178696D756D20416363656C65726186
:101C500074696F6E2028756E6974732F7332293A18
:101C60000A00204500205A0020590020204D323023
:101C7000332058004D6178696D756D206665656427
:101C800072617465732028756E6974732F73293AB5
:101C90000A00204500205A0020590020204D3932EA
:101CA00020580053746570732070657220756E69DA
:101CB000743A0A0020204D3230302044300A00208F
:101CC000204D3230302044002044697361626C65DD
:101CD000640A0046696C616D656E74207365747486
:101CE000696E67733A0020204D3134392043203B20
:101CF00020556E69747320696E2043656C73697535
:101D0000730A002020473231202020203B20556ECE
:101D100069747320696E206D6D0A007A5F6D696E5B
:101D20003A2000795F6D696E3A2000785F6D696EC8
:101D30003A20005265706F7274696E6720656E6438
:101D400073746F70207374617475730A00426162FA
:101D50007973746570205A004D363030204230005F
:101D60004368616E67652066696C616D656E7400BD
:101D70004261627973746570205A00466C6F770017
:101D8000466C6F7700466C6F770046616E2073700B
:101D90006565640046616E20737065656400466128
:101DA0006E2073706565640042656400426564007E
:101DB000426564004E6F7A7A6C65004E6F7A7A6C79
:101DC00065004E6F7A7A6C650053706565640053E8
:101DD00070656564005370656564004D61696E00EF
:101DE0005072656865617420504C4120456E6400F6
:101DF0005072656865617420504C4100507265688E
:101E000065617420504C41204265640050726570D9
:101E100061726500507265686561742041425320AB
:101E2000456E6400507265686561742041425320BC
:101E300042656400507265686561742041425300D8
:101E40005072657061726500473238004D34323827
:101E5000005072656865617420504C4100436F6F9B
:101E60006C646F776E004368616E67652066696CAD
:101E7000616D656E740044697361626C6520737492
:101E8000657070657273004D383400536574206856
:101E90006F6D65206F666673657473005072656858
:101EA00065617420414253004175746F20686F6D05
:101EB00065004D6F76652061786973004D61696ECC
:101EC0000000002100240027002A00000022002535
:101ED0000028002B0000002000230026002900021B
:101EE00002020202020202040404040404040403C1
:101EF00003030303030303010101010101010101C4
:101F000002040810204080010204081020408001D3
:101F100002040810204080804020100804020100C4
:101F20000000010200090A00000000040308070085
:101F30000000000000000000000000000000002081
:101F400020506C616E6E657242756666657242798C
:101F50007465733A20002046726565204D656D6F8B
:101F600072793A2000436F6D70696C65643A204164
:101F7000756720203420323031390A00207C20411E
:101F80007574686F723A20456E6465722D33205007
:101F9000726F0A00323031392D30372D3236002041
:101FA0004C61737420557064617465643A2000312B
:101FB0002E312E362E320A004D61726C696E002071
:101FC000536F6674776172652052657365740A0099
:101FD000205761746368646F672052657365740A83
:101FE000002042726F776E206F75742052657365A2
:101FF000740A002045787465726E616C20526573B6
:1020000065740A00506F77657255700A00737461C9
:1020100072740A006572726F722077726974696EE9
:102020006720746F2066696C650A00456E6473747E
:102030006F707320256320256320256320256300AE
:10204000205A3A0020593A0020583A00656E6473CD
:10205000746F7073206869743A2000446F6E652055
:10206000736176696E672066696C652E0A004D3271
:102070003900202F002042403A0020403A004865B5
:102080006174696E6720646F6E652E0020573A0098
:10209000457874727564657220257300456E6465B9
:1020A000722D332050726F2072656164792E004268
:1020B000656420646F6E652E0020573A00426564A7
:1020C0002048656174696E672E00205A3A002059D5
:1020D0003A0020436F756E7420583A0020453A004C
:1020E000205A3A0020593A00583A0023646566693C
:1020F0006E65202044454641554C545F4B6420009A
:1021000023646566696E65202044454641554C54FC
:102110005F4B69200023646566696E652020444535
:102120004641554C545F4B70200050494420417546
:10213000746F74756E652066696E69736865642175
:102140002050757420746865206C617374204B7026
:102150002C204B6920616E64204B6420636F6E738A
:1021600074616E74732066726F6D2062656C6F7738
:1021700020696E746F20436F6E6669677572617453
:10218000696F6E2E680A00504944204175746F745F
:10219000756E65206661696C6564212074696D6582
:1021A0006F75740A00504944204175746F74756EE0
:1021B00065206661696C6564212054656D70657287
:1021C000617475726520746F6F20686967680A00B2
:1021D000204B643A2000204B693A2000204B703A93
:1021E00020000A20436C61737369632050494420C6
:1021F0000A002054753A2000204B753A2000206DCB
:1022000061783A2000206D696E3A200020643A20FF
:102210000020626961733A200056652D6A65726B11
:102220000056652D6A65726B0056652D6A65726B86
:1022300000567A2D6A65726B00567A2D6A65726B4C
:102240000056792D6A65726B0056792D6A65726B3E
:102250000056792D6A65726B0056782D6A65726B2F
:102260000056782D6A65726B0056782D6A65726B20
:10227000004D6F74696F6E004573746570732F6DD8
:102280006D004573746570732F6D6D005A737465BE
:1022900070732F6D6D005A73746570732F6D6D00C0
:1022A0005973746570732F6D6D0059737465707315
:1022B0002F6D6D005873746570732F6D6D005873BA
:1022C000746570732F6D6D004D6F74696F6E005380
:1022D000746570732F6D6D004A65726B00416363A6
:1022E000656C65726174696F6E0056656C6F6369C9
:1022F000747900436F6E74726F6C0046696C2E20A7
:102300004469612E0046696C2E204469612E004F9D
:102310006666004F6E20004520696E206D6D3300AB
:10232000436F6E74726F6C0043616E6E6F742065E4
:102330006E746572207375626469723A2000022EB1
:102340002E000152656672657368004D61696E000A
:10235000426175643A20313135323030004D656C60
:102360007A692028437265616C697479290045781F
:10237000747275646572733A2031007777772E63D3
:102380007265616C69747933642E636E00456E64A6
:1023900065722D332050726F00312E312E362E3261
:1023A00000437265616C6974792033440041626F47
:1023B0007574205072696E7465720020204E6F7AB9
:1023C0007A6C653A200020004261636B004D696EB3
:1023D000696D756D2054656D7020697320313730DB
:1023E0002E0048656174696E67206661696C65647A
:1023F0000045787472756465206D6F726500526572
:1024000073756D65207072696E7400524553554D39
:1024100045204F5054494F4E533A0020204E6F7A7A
:102420007A6C653A20006368616E6765006F6620AC
:102430007468652066696C616D656E7400576169CA
:102440007420666F72207374617274005052494E2A
:1024500054205041555345440020204E6F7A7A6CE9
:10246000653A2000200066696C616D656E742075A8
:102470006E6C6F6164005761697420666F72005002
:1024800052494E54205041555345440020204E6F30
:102490007A7A6C653A20002000506C656173652083
:1024A000776169742E2E2E0048656174696E67200D
:1024B0006E6F7A7A6C65005052494E5420504155E7
:1024C0005345440020204E6F7A7A6C653A200020F4
:1024D0000068656174206E6F7A7A6C652E005072A8
:1024E00065737320627574746F6E20746F00505240
:1024F000494E54205041555345440020204E6F7A98
:102500007A6C653A2000746F20636F6E74696E7523
:10251000652E2E2E00616E642070726573732062CA
:102520007574746F6E00496E736572742066696CA1
:10253000616D656E74005052494E542050415553A0
:1025400045440020204E6F7A7A6C653A20002000C6
:1025500066696C616D656E74206C6F6164005761B3
:10256000697420666F72005052494E542050415594
:102570005345440020204E6F7A7A6C653A20002043
:102580000066696C616D656E74206578747275643F
:1025900065005761697420666F72005052494E544D
:1025A0002050415553454400746F20726573756D1A
:1025B00065005761697420666F72207072696E746D
:1025C000005052494E5420504155534544004D6FE0
:1025D00076652058004D6F76652059004D6F766501
:1025E000205A004578747275646572004D6F766587
:1025F00020302E316D6D004D6F766520316D6D0090
:102600004D6F76652031306D6D004D6F76652061C0
:10261000786973004578747275646572004D6F76E1
:1026200065205A004D6F76652059004D6F76652004
:1026300058004578747275646572004D6F76652038
:102640005A004D6F76652059004D6F766520580011
:1026500050726570617265004C6F616420736574BF
:1026600074696E677300496E697469616C697A6533
:1026700020454550524F4D0053746F72652073656D
:102680007474696E67730046696C616D656E740081
:102690004D6F74696F6E0054656D7065726174750D
:1026A0007265004D61696E005072656865617420E5
:1026B00041425320636F6E660050726568656174B5
:1026C00020504C4120636F6E660046616E2073702F
:1026D0006565640046616E207370656564004661DF
:1026E0006E20737065656400426564004265640035
:1026F000426564004E6F7A7A6C65004E6F7A7A6C30
:1027000065004E6F7A7A6C6500436F6E74726F6C01
:102710000053746F72652073657474696E6773001B
:102720004265640042656400426564004E6F7A7AD7
:102730006C65004E6F7A7A6C65004E6F7A7A6C65C4
:102740000046616E2073706565640046616E20739B
:10275000706565640046616E207370656564005441
:10276000656D70657261747572650070012C019001
:10277000012701B0012201C0011D01F00118011063
:1027800002130130020E016002090190020401C02F
:1027900002FF000003FA004003F5008003F000D0C0
:1027A00003EB002004E6007004E100E004DC0040DC
:1027B00005D700C005D2004006CD00D006C8008075
:1027C00007C3003008BE00F008B900C009B400B06B
:1027D0000AAF00B00BAA00D00CA500000EA000505C
:1027E0000F9B00C01096005012910000148C00C086
:1027F000158700B0178200B0197D00D01B7800004B
:102800001E730040206E0090226900F02464004096
:10281000275F0090295A00E02B5500102E50002011
:10282000304B0010324600E033410090353C001040
:1028300037370070383200A0392D00B03A2800A098
:102840003B2300603C1E00103D1900903D14001019
:102850003E0F00703E0A00C03E0500003F000040F1
:102860003FFBFF803FF6FFC03FF1FF544845524D0C
:10287000414C2052554E4157415900546865726D84
:10288000616C2052756E61776179004572723A20F1
:102890004D494E54454D5020424544004572723AD0
:1028A000204D494E54454D50004D494E54454D50D4
:1028B00020747269676765726564004572723A20B8
:1028C0004D415854454D5020424544004572723A9E
:1028D000204D415854454D50004D415854454D50A0
:1028E0002074726967676572656400506C65617316
:1028F00065207265736574005052494E54455220EC
:1029000048414C544544005072696E7465722068A9
:10291000616C7465642E206B696C6C28292063617E
:102920006C6C6564210A0062696E004D313137209C
:10293000494E56414C494420444154412E004D31AA
:102940003137205072696E74696E672E2E2E0047E3
:1029500030205A2573004732382058302059300033
:102960004730205A257300473932205A25732045B5
:1029700025730062696E0000000000000000000086
:102980000000000000484200004842000080400073
:102990000000005761726E696E673A20486F6D697A
:1029A0006E672042756D702044697669736F72207E
:1029B0003C20310A000202040000A0400000A040B8
:1029C0000000004000006B4300006B4300007A43AE
:1029D000FFFFFF7C3C3E5E2B3D3F2F5B5D3B2C2A87
:1029E000225C00656E7175657565696E67202200F1
:1029F0006563686F3A002E0A006F70656E2066612D
:102A0000696C65642C2046696C653A2000577269D0
:102A100074696E6720746F2066696C653A20005097
:102A200072696E742070617573656400473020466A
:102A30003330303020583020593000004730205A91
:102A40002573004D31303920532569004D31343024
:102A500020532569004D3130362053323535004D35
:102A600031303920532569004D31393020532569E3
:102A7000005072696E742061626F727465640053F5
:102A8000746F70207072696E7400526573756D6535
:102A9000207072696E7400506F7765722D4C6F7381
:102AA00073205265636F766572793F00496E697471
:102AB0002E2054462063617264004D3231004E6F07
:102AC0002054462063617264004368616E6765202C
:102AD00054462063617264004D3231005072696E59
:102AE000742066726F6D2054460053746F702070AE
:102AF00072696E7400526573756D65207072696ECF
:102B000074005061757365207072696E740053743F
:102B10006F70207072696E7400526573756D6520F8
:102B20007072696E740041626F7574205072696EC4
:102B3000746572005061757365207072696E7400FF
:102B4000436F6E74726F6C005072657061726500D5
:102B500054756E6500496E666F2073637265656EAD
:102B60000000060900FE070192032120FFFF08FF75
:102B700007FF000000060000010707060200808032
:102B80008080800080030202060105A0A0050707DF
:102B90000600005050F850F8505005070706000096
:102BA0002078A07028F020050707060000C0C81094
:102BB000204098180507070600006090A040A890E4
:102BC00068020303060104C04080030707060100F2
:102BD00020408080804020030707060100804020BD
:102BE0002020408005050506000120A870A82005CA
:102BF00005050600012020F820200203030602FF3D
:102C0000C04080050101060003F80202020602002E
:102C1000C0C0050505060001081020408005070713
:102C200006000070888888888870030707060100FE
:102C300040C040404040E00507070600007088089B
:102C4000708080F8050707060000F81020100808BB
:102C5000F005070706000010305090F81010050727
:102C600007060000F880F0080888700507070600CE
:102C700000708080F0888870050707060000F8085B
:102C80001020202020050707060000708888708823
:102C900088700507070600007088887808087002A9
:102CA0000505060200C0C000C0C00206060602FFFD
:102CB000C0C000C04080040707060000102040800C
:102CC000402010050303060002F800F80407070679
:102CD000010080402010204080050707060000709A
:102CE0008808102000200507070600007088086883
:102CF000A8A870050707060000708888F8888888EB
:102D0000050707060000F08888F08888F0050707A7
:102D10000600007088808080887005070706000024
:102D2000F08888888888F0050707060000F880800A
:102D3000F08080F8050707060000F88080F08080AA
:102D400080050707060000708880B888887005072E
:102D500007060000888888F8888888010707060227
:102D60000080808080808080050707060000381082
:102D700010101090600507070600008890A0C0A002
:102D80009088050707060000808080808080F80515
:102D9000070706000088D8A88888888805070706DE
:102DA00000008888C8A89888880507070600007072
:102DB000888888888870050707060000F08888F0F2
:102DC00080808005070706000070888888A89068C2
:102DD000050707060000F08888F0A090880507071F
:102DE000060000788080700808F0050707060000DC
:102DF000F82020202020200507070600008888886A
:102E000088888870050707060000888888888850A9
:102E1000200507070600008888888888A8500507CD
:102E2000070600008888502050888805070706009C
:102E30000088888850202020050707060000F80831
:102E400010204080F8030707060100E080808080A2
:102E500080E00505050600018040201008030707F3
:102E6000060100E02020202020E0050303060004E6
:102E7000205088050101060000F802020206020542
:102E8000804005050506000070087888780507076A
:102E90000600008080B0C88888F00505050600009F
:102EA0007080808870050707060000080868988809
:102EB00088780505050600007088F880700507070A
:102EC0000600003048E0404040400506060600FF8E
:102ED0007088887808700507070600008080B0C8F1
:102EE0008888880107070602008000808080808033
:102EF0000308080601FF200020202020A04004072E
:102F000007060000808090A0C0A09003070706017C
:102F100000C04040404040E0050505060000D0A844
:102F2000A8A8A8050505060000B0C888888805057A
:102F30000506000070888888700506060600FFF008
:102F40008888F080800506060600FF788888780863
:102F500008050505060000B0C88080800505050647
:102F6000000070807008F00407070600004040E091
:102F700040404030050505060000888888986805AF
:102F80000505060000888888502005050506000014
:102F90008888A8A85005050506000088502050889C
:102FA0000506060600FF888888780870050505066E
:102FB0000000F8102040F8030707060100204040F9
:102FC00080404020010707060200808080808080CA
:102FD0008003070706010080404020404080050232
:102FE00002060002689000000006000000000006D3
:102FF00000000000000600000000000600000000C5
:1030000000060000000000060000000000060000AE
:10301000000000060000000000060000000000069E
:103020000000000000060000000000060000000094
:10303000000600000000000600000000000600007E
:10304000000000060000000000060000000000066E
:103050000000000000060000000000060000000064
:10306000000600000000000600000000000600004E
:10307000000000060000000000060000000000063E
:103080000000000000060000000000060000000034
:10309000000600000000000600000000000600001E
:1030A000000000060000000000060000000000060E
:1030B00000000107070602008000808080808005F4
:1030C00007070600002070A8A0A8702005070706C3
:1030D0000000304040E04050A8050505060000888B
:1030E00070507088050707060000885020F820F807
:1030F000200107070602008080800080808005088C
:10310000080600003048205050209060030101065E
:103110000107A0050707060000F888B8B8B888F8C6
:10312000050707060001700878887800F80505058E
:103130000600012850A05028050303060001F808E6
:10314000080202020602064080050707060000F892
:1031500088A88898A8F8050101060006F804040468
:10316000060003609090600507070600002020F825
:10317000202000F804050506000360902040F003BD
:103180000505060003E020E020E002020206020638
:1031900040800508080600FF8888888898E88080B5
:1031A0000507070600007898987818181802020298
:1031B000060202C0C00202020602FF4080030505AB
:1031C00006000340C04040E0050707060001708884
:1031D00088887000F8050505060001A0502850A059
:1031E0000507070600008890A858B80808050707D3
:1031F0000600008890B848982038050808060000A6
:10320000C040C048D838080805070706000020005D
:103210002040808870050808060000402000708863
:10322000F888880508080600001020007088F888D3
:10323000880508080600002050007088F888880576
:1032400008080600006890007088F888880508085B
:103250000600005000708888F88888050808060075
:10326000002050207088F88888050707060000387D
:1032700060A0B8E0A0B80508080600FF708880804C
:1032800088702060050808060000402000F880F0E3
:1032900080F8050808060000081000F880F080F8A3
:1032A000050808060000205000F880F080F80507A7
:1032B000070600005000F880F080F80308080601B7
:1032C00000804000E0404040E00308080601002084
:1032D0004000E0404040E003080806010040A00034
:1032E000E0404040E0030707060100A000E0404046
:1032F00040E0050707060000704848E848487005A8
:10330000080806000068900088C8A8988805080882
:10331000060000402070888888887005080806002C
:103320000010207088888888700508080600002032
:1033300050007088888870050808060000689000B2
:10334000708888887005080806000050007088881A
:1033500088887005050506000188502050880508FA
:10336000080600FF1070A8A8A8A870400508080665
:1033700000004020888888888870050808060000BA
:10338000102088888888887005080806000020506A
:103390000088888888700508080600005000888822
:1033A00088888870050808060000102088502020B2
:1033B00020200509090600FFC040704848704040C1
:1033C000E00408080601FF609090A09090E080055E
:1033D0000808060000402000700878887805080872
:1033E000060000102000700878887805080806009C
:1033F00000205000700878887805080806000068EA
:103400009000700878887805070706000050007063
:103410000878887805080806000020502070087891
:103420008878050606060000D02878A0A850050672
:10343000060600FF708088702060050808060000FE
:103440004020007088F880700508080600001020F1
:10345000007088F880700508080600002050007091
:1034600088F8807005070706000050007088F88013
:103470007003080806010080400040C04040E0039F
:10348000080806010020400040C04040E003080852
:1034900006010040A00040C04040E00307070601CD
:1034A00000A00040C04040E0050707060000A04023
:1034B000A010788870050808060000689000B0C861
:1034C00088888805080806000040200070888888E1
:1034D00070050808060000102000708888887005B4
:1034E00008080600002050007088888870050808C9
:1034F000060000689000708888887005070706003D
:1035000000500070888888700505050600012000BD
:10351000F800200507070600FF1070A8A8A8704053
:10352000050808060000402000888888986805087B
:10353000080600001020008888889868050808069A
:10354000000020500088888898680507070600005A
:10355000500088888898680509090600FF10200037
:10356000888888F808700407070601FFC04060508B
:103570006040E00508080600FF5000888888780849
:10358000702E0A0046696C652862696E29206465A0
:103590006C657465640044656C6574696F6E28625F
:1035A000696E29206661696C6564004572726F728C
:1035B0002077726974696E6720746F204545505298
:1035C0004F4D210A005654726176206D696E005687
:1035D00054726176206D696E005654726176206D6A
:1035E000696E00566D696E00566D696E00566D69A4
:1035F0006E00566D6178204500566D61782045005B
:10360000566D6178204500566D6178205A00566DE0
:103610006178205A00566D6178205A00566D6178A5
:10362000205900566D6178205900566D61782059F7
:1036300000566D6178205800566D6178205800560C
:103640006D61782058004D6F74696F6E00416D6137
:1036500078204500416D6178204500416D617820FA
:103660005A00416D6178205A00416D6178205900FF
:10367000416D6178205900416D6178205800416D9D
:103680006178205800412D74726176656C00412D7F
:1036900074726176656C00412D7265747261637439
:1036A00000412D7265747261637400416363656CDF
:1036B00000416363656C004D6F74696F6E00526505
:1036C00073656E643A20006F6B00627573793A20FF
:1036D00070617573656420666F7220696E707574B1
:1036E0000A00627573793A207061757365642066AB
:1036F0006F7220757365720A00627573793A207073
:10370000726F63657373696E670A004B494C4C4571
:10371000442E20004B494C4C206361757365642036
:10372000627920746F6F206D75636820696E6163C4
:10373000746976652074696D65202D2063757272D9
:10374000656E7420636F6D6D616E643A20006EE08B
:1037500086DF11241FBECFEFD0E4DEBFCDBF13E064
:10376000A0E0B1E0EAECF8EE01E00BBF02C0079088
:103770000D92AE37B107D9F729E1AEE7B3E001C04A
:103780001D92AD39B207E1F71BE1C8EADBE104C0E5
:103790002197FE010E94C8F3C73AD107C9F70E94DA
:1037A000BCDA0C9458F40C9400002F923F924F9284
:1037B0005F926F927F928F929F92AF92BF92CF92C1
:1037C000DF92EF92FF920F931F93CF93DF93CDB7CA
:1037D000DEB7C056D1090FB6F894DEBF0FBECDBF1D
:1037E0000091A30D20E6029F800111240D5D134F6F
:1037F0008091D00B80FF1AC0E0EFF9E284917F0145
:103800003FEFE31AF30A811102C0780104C00E945D
:10381000A338F701F3CFD7018D917D01882319F0EB
:103820000E94A338F8CF8AE00E94A33881E090E09C
:1038300090938219809381191092A9031092A80382
:103840008FE38093AC031092AB031092AA0384E041
:10385000E8E9F3E0DF011D928A95E9F7F80180813C
:103860000F5F1F4F8032D1F38E34C9F4818190ED08
:10387000980F9A3020F08D3211F08B3281F4DF01F5
:1038800012969D012F5F3F4F8C9180538A3010F428
:10389000D901F7CFFD01119680818032D9F3F093E1
:1038A0008A19E09389197F01BFEFEB1AFB0A108197
:1038B0006AE270E0C7010E9420F4009731F0FC0139
:1038C000319780818032E1F311821D3431F114355A
:1038D00021F1173411F1E0EFF9E284918F010F5FCC
:1038E0001F4F882321F00E94A338F801F6CF609182
:1038F000891970918A198FEB97E00E945E4182E2EC
:103900000E94A3388AE00E94A33810928219109274
:1039100081190E9452D90C945233C701FC012081B5
:1039200001962032D9F320532A30A8F61093AC0325
:1039300080E090E06AE03196DF0111972C91022E31
:10394000000C330B20533109689FA001699F500D73
:103950001124C901840F951F208120532A3058F368
:103960009093AB038093AA03DF0131962C91203210
:10397000D9F31D34A9F48E319105D1F03CF487318F
:103980009105B1F08C31910559F412C0853791053C
:103990003CF08737910564F0803AE3E09E0741F000
:1039A0000091891960E070E0EE24E394F12C43C0AB
:1039B000B093A903A093A8037FC0213209F445C0A6
:1039C0003FEBB32EB20E49E1A42EAB1408F45FC056
:1039D000AF01FA0130814F5F5F4F3032D1F340EDDC
:1039E000430F4A3008F047C0AF018B2C912C640183
:1039F00023E0D594C7942A95E1F7960128563C4FC9
:103A000069012B2D2770D70102C0AA0FBB1F2A9571
:103A1000E2F79D01D6013C91232B2C9341155105D2
:103A2000A1F1401BD401A258BC4F4C9320812154DA
:103A30002A3190F5DF01FD0131962C912111BDCF86
:103A40007093A9036093A80337C01D3409F0B8CF61
:103A50008032910509F0B4CFF093A903E093A80355
:103A600063E270E0CF010E9420F4009709F47FC761
:103A7000DC011C9221C043ED430F423008F4B4CF67
:103A80003B3211F00C94E332AFCF40E0CBCF611565
:103A9000710561F6BD01CACFDF01AD014F5F5F4F18
:103AA0002C9120532A3010F4DA01F7CFFD01119642
:103AB00020812032D9F3BECF8091AC038D3409F43C
:103AC00056C7843511F40C94A032873409F003CF23
:103AD0002090AA033090AB03B4E02B16310409F414
:103AE000E2C554F437FC11CF80911101F2E02F169A
:103AF00031040CF0F4C017C02AE52216310409F491
:103B0000CDC634F44CE12416310409F411C6FDCEBF
:103B10005BE52516310409F4C4C68CE5281631048A
:103B200009F4C3C6F2CE882309F4EFCE0E942038F0
:103B300080912301882321F086E991E10E94049F6E
:103B40000E9498388091D00B83FD79C0C090A2115B
:103B5000D090A311E090A411F090A5112091B0177E
:103B60003091B1174091B2175091B317C701B60108
:103B70000E94D9E9882309F462C00E947941882310
:103B800009F1C092B017D092B117E092B217F0923B
:103B9000B317E0EFF9E284918F010F5F1F4F81119E
:103BA00003C0E2EEF2E004C00E94A338F801F3CFB4
:103BB00084918F010F5F1F4F882321F00E94A3384B
:103BC000F801F6CFC090A211D090A311E090A411FB
:103BD000F090A5112091B0173091B1174091B21714
:103BE0005091B317C701B6010E9492F020E030E077
:103BF00048E453E40E94F3F218160CF5C092B01793
:103C0000D092B117E092B217F092B317E0EFF9E259
:103C100084918F010F5F1F4F811103C0E3ECF2E02D
:103C200004C00E94A338F801F3CF84918F010F5F85
:103C30001F4F882321F00E94A338F801F6CF20916E
:103C4000961130919711409198115091991160916E
:103C5000A4177091A5178091A6179091A7170E949D
:103C6000D9E981111DC020919A1130919B11409189
:103C70009C1150919D116091A8177091A917809186
:103C8000AA179091AB170E94D9E9811109C06091E0
:103C90002A0170912B0180912C0190912D011AC065
:103CA0006091150170911601072E000C880B990B7D
:103CB0000E94E0E920912A0130912B0140912C01D2
:103CC00050912D010E943FEA2AE037ED43E25CE388
:103CD0000E943FEA0E94E3350E94D93516CE882320
:103CE00009F413CE0E94203882E50E9413388823FD
:103CF00009F43CC10E94B1374B015C0120E030E087
:103D0000A9010E94D9E9882309F45CC12091A41774
:103D10003091A5174091A6175091A7172DA73EA740
:103D20004FA758AB8091A8179091A917A091AA17F7
:103D3000B091AB1789AB9AABABABBCAB20919611F2
:103D400030919711409198115091991129AF3AAF44
:103D50004BAF5CAF80919A1190919B11A0919C11F7
:103D6000B0919D118DAB9EABAFABB8AF6DA57EA5ED
:103D70008FA598A90E94D9E981110DC02DA93EA94E
:103D80004FA958AD69A97AA98BA99CA90E94D9E924
:103D9000882309F417C111E092E02916310409F0D3
:103DA00010E020E030E0A901C501B4010E94D9E98A
:103DB000881F8827881F181759F020E030E040E856
:103DC0005FEB29962CAF3DAF4EAF5FAF29970AC08E
:103DD00080E090E0A0E8BFE329968CAF9DAFAEAF46
:103DE000BFAF29972DA53EA54FA558A969AD7AADBE
:103DF0008BAD9CAD0E9492F025966CAF7DAF8EAFDF
:103E00009FAF259729A93AA94BA95CA96DA97EA9BD
:103E10008FA998AD0E9492F06B017C0125962CAD84
:103E20003DAD4EAD5FAD2597CA01B9010E943FEA95
:103E30002B013C01A7019601C701B6010E943FEA90
:103E40009B01AC01C301B2010E9493F00E9441F3B7
:103E500021966CAF7DAF8EAF9FAF219720E030E011
:103E600040E05FE30E943FEA2B013C01A501940181
:103E7000C501B4010E943FEA4B015C01A30192011C
:103E8000C301B2010E943FEA9B01AC01C501B4012C
:103E90000E9492F00E9441F329962CAD3DAD4EADAB
:103EA0005FAD29970E943FEA4B015C01C701B60153
:103EB000905821962CAD3DAD4EAD5FAD21970E943F
:103EC0008DF1A50194010E943FEA6B017C0129ADAF
:103ED0003AAD4BAD5CAD6DA57EA58FA598A90E94AE
:103EE00093F020E030E040E05FE30E943FEA9B0176
:103EF000AC01C701B6010E9493F02DA53EA54FA5C8
:103F000058A90E9492F06B017C012DA93EA94FA9EE
:103F100058AD69A97AA98BA99CA90E9493F020E0C9
:103F200030E040E05FE30E943FEA2B013C01219634
:103F30002CAD3DAD4EAD5FAD219725966CAD7DAD01
:103F40008EAD9FAD25970E948DF1A50194010E9431
:103F50003FEA9B01AC01C301B2010E9493F029A981
:103F60003AA94BA95CA90E9492F014C089E40E946E
:103F70001338882329F00E94B1376B017C0103C0FC
:103F8000C12CD12C76018AE40E9413388823E9F0F1
:103F90000E94B13769AF7AAF8BAF9CAF20E030E0C1
:103FA000A901C701B6010E94D9E981111BC020E017
:103FB00030E0A90169AD7AAD8BAD9CAD0E94D9E925
:103FC000811110C0E3E8FAE15BC320E030E0A90111
:103FD000C701B6010E94D9E98823A1F319AE1AAE30
:103FE0001BAE1CAEA701960150582DA73EA74FA7A8
:103FF00058AB89AD9AADABADBCADB05889AB9AABFF
:10400000ABABBCABCA01B9010E943FEA4B015C01FA
:1040100029A93AA94BA95CA9CA01B9010E943FEAA2
:104020009B01AC01C501B4010E9493F00E9441F3D1
:1040300065966CAF7DAF8EAF9FAF65972091A4174B
:104040003091A5174091A6175091A7172DAB3EAB05
:104050004FAB58AFA70196016DA97EA98FA998AD66
:104060000E9493F029966CAF7DAF8EAF9FAF2997DA
:104070008091A8179091A917A091AA17B091AB179A
:1040800021968CAF9DAFAEAFBFAF21979C01AD0124
:1040900069AD7AAD8BAD9CAD0E9493F069966CAF23
:1040A0007DAF8EAF9FAF6997209196113091971198
:1040B00040919811509199112D962CAF3DAF4EAF74
:1040C0005FAF2D9729962CAD3DAD4EAD5FAD2997D5
:1040D0002D966CAD7DAD8EAD9FAD2D970E9492F06B
:1040E0006B017C0180919A1190919B11A0919C1180
:1040F000B0919D1161968CAF9DAFAEAFBFAF619790
:1041000069962CAD3DAD4EAD5FAD6997BC01CD015B
:104110000E9492F04B015C012091AC173091AD17D9
:104120004091AE175091AF176D962CAF3DAF4EAF8B
:104130005FAF6D9760919E1170919F118091A0115A
:104140009091A1110E9492F025966CAF7DAF8EAF39
:104150009FAF2597A70196016DA57EA58FA598A96C
:104160000E943FEA2B013C01A501940169A97AA9AB
:104170008BA99CA90E943FEA9B01AC01C301B2013B
:104180000E9493F02B013C01A50194016DA57EA531
:104190008FA598A90E943FEA4B015C01A7019601F7
:1041A00069A97AA98BA99CA90E943FEA9B01AC014D
:1041B000C501B4010E9492F0A30192010E9412F184
:1041C0006B017C0120E030E0A9010E94D9E987FF62
:1041D0000AC02BED3FE049EC50E4C701B6010E9454
:1041E00093F06B017C0132E02316310451F42BED86
:1041F0003FE049EC50E4C701B6010E9492F06B0128
:104200007C0120E030E0A901C701B6010E94D9E994
:10421000811126C02D962CAD3DAD4EAD5FAD2D97D5
:104220006DA97EA98FA998AD0E94D9E9811118C006
:1042300061962CAD3DAD4EAD5FAD619721966CADF5
:104240007DAD8EAD9FAD21970E94D9E9811108C047
:104250001BEDC12E1FE0D12E19ECE12E10E4F12E42
:10426000A701960165966CAD7DAD8EAD9FAD65974E
:104270000E943FEA9B01AC010E943FEA4B015C01B6
:1042800025962CAD3DAD4EAD5FAD2597CA01B90168
:104290000E943FEA9B01AC01C501B4010E9493F06A
:1042A0000E9441F34B015C012FE632E143E85AE3FF
:1042B0000E94D9E987FDDEC1C501B4010E9435F233
:1042C0000E9406F27EAF6DAF672B21F421E030E053
:1042D0003EAF2DAF4090B0175090B1176090B2171D
:1042E0007090B317ADACBEACB50180E090E00E9419
:1042F000DEE94B015C019B01AC01C701B6010E94E4
:104300008DF16DAB7EAB8FAB98AFA5019401259677
:104310006CAD7DAD8EAD9FAD25970E948DF16596FC
:104320006CAF7DAF8EAF9FAF6597A3019201609197
:10433000A2117091A3118091A4119091A5110E94D6
:1043400092F0A50194010E948DF1A1966CAF7DAF12
:104350008EAF9FAFA1972DA93EA94FA958ADCA0115
:10436000B9010E943FEA20E030E040E05FE30E94B4
:104370003FEA9B01AC0160E070E080E89FE30E94AF
:1043800092F025966CAF7DAF8EAF9FAF25976D965F
:104390002CAD3DAD4EAD5FAD6D9729873A874B870C
:1043A0005C874D865E866F86788A60911501709174
:1043B0001601072E000C880B990B0E94E0E9209152
:1043C0002A0130912B0140912C0150912D010E9426
:1043D0003FEA2AE037ED43E25CE30E943FEA2D9694
:1043E0006CAF7DAF8EAF9FAF2D970E941BC29B011C
:1043F000AC0128533F4F4F4F5F4F61962CAF3DAFFD
:104400004EAF5FAF61974DA45EA46FA478A822243D
:104410002394312CB9E1DB2EADACBEACA214B304B5
:1044200009F414C10E9408500E941BC2DC01CB0198
:1044300061962CAD3DAD4EAD5FAD6197821B930B88
:10444000A40BB50BB7FD11C00E941BC29B01AC01B0
:1044500028533F4F4F4F5F4F61962CAF3DAF4EAF4C
:104460005FAF619780E00E94DCD6DA94DD2009F42A
:1044700041C029A93AA94BA95CA925966CAD7DAD8F
:104480008EAD9FAD25970E943FEA4B015C019201E2
:10449000A3016DA97EA98FA998AD0E943FEAA5014D
:1044A00094010E9493F07B018C019201A301259657
:1044B0006CAD7DAD8EAD9FAD25970E943FEA4B015F
:1044C0005C0129A93AA94BA95CA96DA97EA98FA96C
:1044D00098AD0E943FEA9B01AC01C501B4010E9466
:1044E00092F02B013C01C701D80189AB9AABABAB71
:1044F000BCAB4DC0B10180E090E00E94DEE92DA987
:104500003EA94FA958AD0E943FEA4B015C010E94B1
:1045100088F16B017C01C501B4010E9433F34B01AA
:104520005C01A70196016DA57EA58FA598A90E94A3
:104530003FEA2B013C01A501940169AD7AAD8BAD39
:104540009CAD0E943FEAA30192010E9493F02B01CF
:104550003C01A50194016DA57EA58FA598A90E9497
:104560003FEA4B015C01A701960169AD7AAD8BADC5
:104570009CAD0E943FEA9B01AC01C501B4010E94C1
:1045800092F069AB7AAB8BAB9CABF9E1DF2E920179
:10459000A30129966CAD7DAD8EAD9FAD29970E948C
:1045A00093F069837A838B839C8329A93AA94BA9C9
:1045B0005CA969966CAD7DAD8EAD9FAD69970E948B
:1045C00093F06D837E838F83988765962CAD3DAD88
:1045D0004EAD5FAD659769857A858B859C850E9418
:1045E00093F069877A878B879C87A1962CAD3DAD28
:1045F0004EAD5FADA1976D857E858F8598890E94B0
:1046000093F06D877E878F87988B80912301882315
:1046100021F0CE0101960E94049FC0907A092D9648
:10462000ECACFDAC0EAD1FAD2D979E01235F3F4F4F
:10463000AE01475F5F4FBE016B5F7F4FCE010196BA
:104640000E9413433FEF231A330AE6CEC0907A0943
:104650002D96ECACFDAC0EAD1FAD2D9722EA31E1ED
:104660004EE951E16AE971E186E991E10E94134363
:104670000E94D9350E94983848C90E94A338F80191
:1046800084918F010F5F1F4F8111F7CFEDEFF2E0A3
:1046900084918F010F5F1F4F882309F436C90E9450
:1046A000A338F801F5CF80E50E941338882329F05C
:1046B0000E946D376B017C0103C0C12CD12C7601A7
:1046C00083E50E941338882361F00E94B13720E00F
:1046D00030E04AE754E40E943FEA0E9406F26B0190
:1046E0007C010E94F45280913401811105C060E088
:1046F00083E193E00E94D7C60E9498388091FF0B17
:104700009091000CA091010CB091020CC80ED91E22
:10471000EA1EFB1E0E941BC2DC01CB018C199D0905
:10472000AE09BF09B7FFF1C880E00E94DCD6F2CF26
:104730000E94F45280912A0190912B01A0912C01AA
:10474000B0912D018093A4039093A503A093A60399
:10475000B093A70380911501909116019093A30344
:104760008093A20384E690E0909316018093150154
:104770000E94983881E08093EB0B88E50E94E43733
:10478000E82E89E50E94E437082F8AE50E94E43785
:10479000F82EE11005C0011105C011E0182705C071
:1047A000011102C010E001C0182F0E94CF35111175
:1047B00005C0E11003C0002309F444C020E030E04C
:1047C00040EA50E4609186117091871180918811C0
:1047D000909189110E9493F060939E1170939F11A4
:1047E0008093A0119093A1112091AC173091AD1737
:1047F0004091AE175091AF170E94F3F218167CF457
:1048000019821A821B821C829E012F5F3F4F4EE944
:1048100051E168EA77E184EA97E10E94DD34111101
:1048200005C0E11003C0011107C00CC080E090E09A
:104830000E94969F1123B9F381E090E00E94969F19
:10484000111102C0FF2021F082E090E00E94969FAB
:104850000E9405378091C70B8093EB0B8091A403D6
:104860009091A503A091A603B091A70380932A017C
:1048700090932B01A0932C01B0932D018091A20362
:104880009091A30390931601809315010E9498388C
:1048900083E080938A010E947F7937C81092A10338
:1048A00034C881E08093A10330C885E40E941338A6
:1048B000B82E811102C00E94F45264E9862E61E094
:1048C000962E74EAC72E77E1D72EEAE8EE2EE1E1C4
:1048D000FE2E00E010E0A12C33243394D4018D91FE
:1048E0004D010E941338882359F1F6014080518010
:1048F000628073800E94B137D6016D937D938D9352
:104900009C9313970330E1F0023011F43092EE0BD8
:10491000A30192010E9492F09B01AC01F70160811A
:104920007181828193810E9493F0D7016D937D9371
:104930008D939C931397C8010E94FC35AA24A394DD
:104940000F5F1F4FB4E0CB0ED11CE4E0EE0EF11C64
:104950000430110519F6AA2019F00E94053703C08A
:10496000B1100E9431C80E947F790C94851C8091FF
:10497000AA039091AB038137910509F420C60CF08E
:10498000D0C08B34910509F438C50CF05FC0883174
:10499000910509F496C2B4F58231910509F4E2C695
:1049A000BCF497FF02C00C94851C823091050CF476
:1049B000A7C1419711F00C94851C60E081E593E05C
:1049C0000E94D7C65E985E9815985E980C94851CD8
:1049D0008531910509F45CC23CF4449711F00C94C4
:1049E000851CE9E6F3E014C28631910509F456C24C
:1049F000479711F00C94851C8091A8039091A9030E
:104A0000FC0156C28C31910509F4C4C264F48A31A8
:104A1000910509F463C20CF080C210925F120E94EB
:104A2000DEC80C94851C8F31910509F4F0C32CF479
:104A30004E9709F4B9C20C94851C8032910509F493
:104A40009CC38A9709F499C40C94851C88369105F7
:104A500009F4DFC40CF046C08235910509F479C62B
:104A600044F58D34910509F4D0C40CF4CAC48135E1
:104A7000910511F00C94851C0E94D69D0E94F45261
:104A80000E9448D91092401510923F150E94AFC85D
:104A90001092B8111092B71168EE73E080E090E0C8
:104AA0000E94BCC560E086E794E00E94D7C60C94E3
:104AB000851C8435910509F455C60CF44EC6853520
:104AC000910509F482C68C35910511F00C94851C72
:104AD00024E9C22E21E0D22E34EBE32E37E1F32E6F
:104AE00010E08EC68C36910509F465C53CF48A3613
:104AF000910509F4FDC50CF4ADC519C68E369105B6
:104B000009F4D3C40CF4ECC58F36910509F4E0C464
:104B10008037910511F00C94851C83E694E00E9487
:104B200082A3833D910509F4E4C00CF06BC0813988
:104B3000910511F40C945D2D5CF58637910509F40F
:104B400074C7A4F48337910509F4D7C00CF4D8C610
:104B50008537910511F00C94851C60E08091A803C5
:104B60009091A9030E94F5C60C94851C8837910585
:104B700011F40C94502D0CF48FC78937910511F462
:104B80000C94572D8C38910509F446C50C94851C5E
:104B9000893C910511F40C942C2E7CF48E3B9105EC
:104BA00009F4A2C5883C910511F40C94D82D8B39D9
:104BB000910511F00C94851C6AC58C3C910511F48B
:104BC0000C94682E6CF48B3C910511F00C94851CB0
:104BD00074E9E72E71E0F72E0DEC18E10C94582ED5
:104BE0008D3C910511F40C94D42E8E3C910511F05E
:104BF0000C94851C64E9E62E61E0F62E00E010E0DE
:104C00000C94412F8039F1E09F0711F40C9470311E
:104C100084F58C3231E0930711F40C944C308CF411
:104C20008D3D910511F40C940130823E910511F4F3
:104C30000C941D308C3D910511F00C94851C0C9446
:104C4000F22F8E3251E0950711F40C94153114F4C3
:104C50000C9476308F32B1E09B0711F40C946C31D8
:104C60008336914011F00C94851CE3E8FAE10C9432
:104C70007832863FF1E09F0711F40C945E32FCF429
:104C80008C3A31E0930711F40C9474314CF48A3966
:104C9000914011F00C94851C0E9426790C94851C7F
:104CA000843FA1E09A0711F40C945A32853F914059
:104CB00011F00C94851C0E94ADB80C94851C8835AD
:104CC000E2E09E0711F40C9471323CF4873F91406E
:104CD00011F40C9462320C94851C803A33E09307F3
:104CE00009F488C2873E934011F40C948C320C94E2
:104CF000851CE0EFF9E20C945A2FE2E6F5E009C6D4
:104D0000A090A803B090A90380E50E9413388823DF
:104D100059F00E946D376B017C0111E0672B682B05
:104D2000692B31F410E004C010E0C12CD12C7601C5
:104D300083E50E9413388823F1F00E94B13720E008
:104D400030E04AE754E40E943FEA0E9406F26B0119
:104D50007C01111112C0672B682B692B71F4A1140F
:104D6000B10459F0D5018C91882339F061E0C50177
:104D70000E94F5C607C0112391F360E08EE393E033
:104D80000E94D7C683E090E09093821980938119A6
:104D900081E08093B6110E94F4520E949838C114A9
:104DA000D104E104F104E1F08091FF0B9091000C3B
:104DB000A091010CB091020CC80ED91EEA1EFB1E78
:104DC0000E941BC2DC01CB018C199D09AE09BF09F1
:104DD000B7FF1AC08091B61181110C94ED3214C046
:104DE0008091B611882321F080E00E94DCD6F8CFB4
:104DF00080915F1260E0882319F08FE293E002C097
:104E00008CE193E00E94D7C61092B6110C94851CD9
:104E100084918F010F5F1F4F882321F00E94A338D8
:104E2000F801F6CF109204151092031580E992E173
:104E30000E94B7A58BE1E0E9F2E1DE011596019051
:104E40000D928A95E1F780918E1290918F129C833A
:104E50008B838CE991E09A83898340E050E0BE0126
:104E60006F5F7F4F8CE193E00E94EA64CE01019670
:104E70000E9479A0EAE5F3E084918F010F5F1F4F54
:104E8000882311F40C94851C0E94A338F801F4CFF8
:104E90000E946A630E9481A00C94851C10925F128C
:104EA000109260120C94851C203209F41082319605
:104EB00020812111F9CF40E061E00E94F5660C9459
:104EC000851C0E94AFC880916012882319F081E090
:104ED00080935F120E946FC80C94851C80916012B1
:104EE000882311F40C94851C83E50E9413388823D1
:104EF00011F40C94851C0E947D37AB01BC014093DA
:104F0000FA145093FB146093FC147093FD148AE21E
:104F100094E10E9491CD0C94851C809160128111C6
:104F200003C0ECE8F3E02AC0EAE7F3E084918F01E4
:104F30000F5F1F4F882321F00E94A338F801F6CF9E
:104F40006091FA147091FB148091FC149091FD14FF
:104F50004AE00E94AA388FE20E94A3386091F614BA
:104F60007091F7148091F8149091F9144AE00E941E
:104F7000AA388AE00E94A3380C94851C84918F0182
:104F80000F5F1F4F882311F40C94851C0E94A338D7
:104F9000F801F4CF40E060E08091A8039091A9036C
:104FA0000E94F5660C94851C80916012882311F490
:104FB0000C94851C8AE294E10E945ECD8AE294E121
:104FC0000E9459A410925E1210925D12E090A80304
:104FD000F090A90380916012882311F40C94851C31
:104FE00010925F1280912D14882321F08AE294E1BF
:104FF0000E9459A4FE0131966F01CF010E94FECAA2
:105000008CE892E19093AC128093AB12D7018C9113
:105010008F3209F060C06FE270E0C7010E9420F497
:105020008C010F5F1F4F09F45CC06FE270E0C80194
:105030000E9420F45C01009709F454C00817190776
:1050400008F050C04C01801A910AA401B801CE01A9
:1050500080960E9449F4E0E2F0E0EC0FFD1FE80DBD
:10506000F91D10828E01005E1F4FF80181918F01A2
:10507000882319F00E94A338F8CF8AE00E94A33851
:105080006091AB127091AC126115710511F06C5FFB
:105090007F4F21E0AE01405E5F4FCE0105960E943A
:1050A00008AA811112C0BE01605E7F4F83EC93E0BD
:1050B0000E945E418EE20E94A3388AE00E94A338DB
:1050C000C6010E9479A00C94851CD092AC12C092AB
:1050D000AB128501A6CF8DEA92E19093AC1280933A
:1050E000AB1287018091AB129091AC12009709F03E
:1050F0000496B8010E94BCCF811103C0EBEAF3E033
:1051000021C0EDE9F3E084917F012FEFE21AF20A6A
:10511000882321F00E94A338F701F5CFD8018D91A3
:105120008D01882319F00E94A338F8CF8AE00E94ED
:10513000A3381092FA141092FB141092FC141092DF
:10514000FD1416C084917F01BFEFEB1AFB0A882380
:1051500021F00E94A338F701F5CFF80181918F016A
:10516000882319F00E94A338F8CF8EE20E94A3385A
:10517000C6010E9479A00C94851C80915F12811158
:105180000E94F452E090A803F090A90380E50E94E9
:10519000E437182F882319F00E94A137182F809127
:1051A0006012882311F40C94851C412F61E0C70123
:1051B0000E94F56683E50E941338882381F00E94DF
:1051C0007D37AB01BC014093FA145093FB146093FC
:1051D000FC147093FD148AE294E10E9491CD8091B9
:1051E0006012882319F081E080935F1211110C94F2
:1051F000851C70CE8091A8039091A90321E0209393
:105200005E1240E060E00E94F5660C94851C0E94EE
:10521000B4647B018C0120E831E541E050E00E945C
:105220002FF0C9016DE671E00E94A0F34B015C0113
:10523000C801B70120E13EE040E050E00E942FF0BD
:10524000CA01B90128E130E040E050E00E942FF0AF
:10525000762E672EC62ED72E5CE3252E312C412CC0
:10526000512CC801B701A20191010E942FF0F62E26
:10527000E72ECA01B901A20191010E942FF0CB01D2
:105280008E010F5F1F4F8114910499F0EF92FF92EE
:105290007F936F936F927F92BF92AF929F928F9204
:1052A0008FEF93E09F938F931F930F930E9471E969
:1052B00013C0A114B104B1F0EF92FF927F936F93EA
:1052C0006F927F92BF92AF928FEE93E09F938F93F6
:1052D0001F930F930E9471E90FB6F894DEBF0FBEC3
:1052E000CDBF30C0CD2879F0EF92FF927F936F93BE
:1052F0006F927F9283EE93E09F938F931F930F9310
:105300000E9471E9E9CF892B69F0EF92FF927F93B8
:105310006F938BED93E09F938F931F930F930E9456
:1053200071E9DACFEF92FF9287ED93E09F938F932D
:105330001F930F930E9471E90F900F900F900F90A1
:105340000F900F9060E0C8010E94F5C6E0EFF9E20F
:1053500084917F01BFEFEB1AFB0A882321F00E94A2
:10536000A338F701F5CFB80183E194E00E945E41D4
:105370008AE00E94A3380C94851C83E50E941338B0
:10538000882311F40C94851C0E948D37E82E80E54B
:105390000E941338882311F40C94851C0E947D37D9
:1053A000162FC62ED72ED7FE02C00C94851CE6E021
:1053B000F7E08491181303C0E3E8FAE10AC03196DC
:1053C00027E0EE32F207A9F70C94F2320E94A338DC
:1053D000F80184918F010F5F1F4F8111F7CFE0E239
:1053E000F4E084918F010F5F1F4F882311F40C9418
:1053F000851C0E94A338F801F4CF0E946FC80C945A
:10540000851C0E94DEC80C94851C0E94A2B30C94DB
:10541000851C88E690E00E94173981110C94851C48
:105420008091D00B83FF02C00C94851C83E50E9401
:1054300013388823B1F10E94B1370E94FFF1CB01EC
:105440000E945CC60E94B13720E030E04AEA52E494
:105450000E94D9E918163CF00E94A2B360E08BE3E9
:1054600094E00E94D7C60E94B13720911A1530915E
:105470001B1540911C1550911D150E94F3F2181632
:1054800084F48AE092E09F938F938FE294E09F935D
:105490008F931F920E9416C80F900F900F900F903D
:1054A0000F900E9499410C94851C8EE40E94133841
:1054B000882311F40C94851C0E947D3760937D191C
:1054C00070937E1980937F19909380190C94851C9A
:1054D00083E50E94E437882359F083E50E9413385E
:1054E000882319F00E948D3701C080E08093D00B93
:1054F000E0EFF9E284918F010F5F1F4F811103C02C
:10550000ECE5F4E004C00E94A338F801F3CF8491E5
:105510008F010F5F1F4F882321F00E94A338F801ED
:10552000F6CF8091D00B811103C0E8E5F4E034C0E0
:105530004EE4C42E44E0D42EE12CF12C20E08091E6
:10554000D00B90E00E2C02C0959587950A94E2F757
:1055500080FF17C0BB24B394B20E222319F08CE253
:105560000E94A338F60185919491FC0184918F01EA
:105570000F5F1F4F882321F00E94A338F801F6CF58
:105580002B2D3FEFE31AF30A42E0C40ED11C55E085
:10559000E516F104A1F60AC084918F010F5F1F4F39
:1055A000882321F00E94A338F801F6CF8AE00E94F8
:1055B000A3380C94851C109277010C94851C83E50C
:1055C0000E941338811103C0E0EFF9E20DC00E9480
:1055D0008D3780938B018D3310F40C94851C8CE3F4
:1055E00080938B010C94851C84918F010F5F1F4F5A
:1055F000882321F00E94A338F801F6CF40918B0157
:1056000050E060E070E08CE694E00E940B418AE09C
:105610000E94A3380C94851C8091D00B83FF02C09C
:105620000C94851C83E50E941338882311F40C9494
:10563000851C0E94B1370E94FFF16E37710514F08E
:105640006DE770E070933E1560933D150E948A9D52
:105650000C94851C89E690E00E941739811111C0D5
:10566000E3E7F4E084918F010F5F1F4F882321F05F
:105670000E94A338F801F6CF0E943E7A8AE00E9489
:10568000A33810928219109281190C94523383E539
:105690000E941338882311F40C94851C0E948D37C6
:1056A000809387198D3318F08CE3809387190E94BB
:1056B0001BC26B017C012091871930E0A8EEB3E09A
:1056C0000E9483F0C60ED71EE81EF91EC0928319F1
:1056D000D0928419E0928519F09286190C94851C59
:1056E0000E9443800C94851C0E949C7E0C94851C17
:1056F00083E50E941338882339F00E947D378B019F
:105700006F3F710519F010F00FEF10E080E50E9477
:105710001338811106C01093401500933F150C9467
:10572000851C0E948D3781110C94851CF4CF80E577
:105730000E941338811106C01092401510923F1537
:105740000C94851C0E947D37672B11F00C94851CEE
:10575000F3CF1092A0030C94851C81E08093A003EA
:105760000C94851C83E50E9413388823A1F00E94C5
:10577000B13720E030E04AE754E40E943FEA0E945B
:1057800006F260938C0170938D0180938E0190934B
:105790008F010C94851C88E50E94E43781113BC77A
:1057A00089E50E94E437811136C78AE50E94E43713
:1057B000811131C785E40E94E43781112CC70E9412
:1057C000F4520E9448D90C94851C83E50E94E4376A
:1057D000882311F40C94851C0E94B13720E030E03E
:1057E0004AE754E40E943FEA0E9406F260938B1954
:1057F00070938C1980938D1990938E190C94851C3D
:10580000D6018D916D010E94E437882309F46DC0A3
:10581000133009F063C00E94B1374B015C0120E0F6
:1058200030E040EA51E40E94D9E987FF4EC0A5016B
:1058300094016091C0177091C1178091C217909127
:10584000C3170E948DF12B013C019B01AC016091BB
:10585000BD0D7091BE0D8091BF0D9091C00D0E9445
:105860003FEA6093BD0D7093BE0D8093BF0D909382
:10587000C00DA30192016091D9187091DA1880913E
:10588000DB189091DC180E943FEA6093D91870935E
:10589000DA188093DB189093DC18609144047091BF
:1058A000450480914604909147040E94DEE9A301DB
:1058B00092010E943FEA0E9406F2609344047093B2
:1058C000450480934604909347048092C0179092B9
:1058D000C117A092C217B092C31707C00E94B13778
:1058E000F70160837183828393831F5FF4E0EF0E7F
:1058F000F11C143009F084CF0E94E7420C94851CFF
:105900000E94F4520E947F790C94851C0E94A33857
:10591000F80184918F010F5F1F4F8111F7CFE4E5EC
:10592000F5E003C00E94A338F80184918F010F5F56
:105930001F4F8111F7CFEDE3F5E003C00E94A338BC
:10594000F80184918F010F5F1F4F8111F7CFEDE2B6
:10595000F5E003C00E94A338F80184918F010F5F26
:105960001F4F8111F7CFECE1F5E003C00E94A3388F
:10597000F80184918F010F5F1F4F8111F7CFEBE08A
:10598000F5E003C00E94A338F80184918F010F5FF6
:105990001F4F8111F7CFECEFF4E003C00E94A33852
:1059A000F80184918F010F5F1F4F8111F7CFE7EE50
:1059B000F4E003C00E94A338F80184918F010F5FC7
:1059C0001F4F8111F7CFE1EDF4E003C00E94A3382F
:1059D000F80184918F010F5F1F4F8111F7CFECEB1E
:1059E000F4E003C00E94A338F80184918F010F5F97
:1059F0001F4F8111F7CFEFE9F4E003C00E94A338F5
:105A0000F80184918F010F5F1F4F8111F7CFE7E8F5
:105A1000F4E084918F010F5F1F4F882311F40C94E1
:105A2000851C0E94A338F801F4CF85E40E94E43776
:105A3000882381F00E94A137882361F0E0EFF9E22A
:105A400084918F010F5F1F4F882321F00E94A3389C
:105A5000F801F6CF81E40E94E437882381F00E94A8
:105A6000A137882361F0E6E2F6E084918F010F5FB1
:105A70001F4F882321F00E94A338F801F6CF009130
:105A8000A8031091A903D8018D918D01882309F4F1
:105A90008DCD0E94A338F7CF0E944A6B0C94851CD1
:105AA00081E08093EB0B8093C70B0C94851C1092C4
:105AB000EB0B1092C70B0C94851C83E50E941338E6
:105AC000882319F00E947D3702C060E070E08B01EE
:105AD000112702301105DCF0E3E8FAE184918F012F
